:020000040800F2
:10400000F8BF0020D58B0108D18B0108CF8B0108A8
:10401000CF8B0108CF8B0108CF8B01080000000077
:10402000000000000000000000000000D18B01082B
:10403000D18B010800000000D18B0108D18B010851
:10404000CF8B0108CF8B0108CF8B0108CF8B0108E4
:10405000CF8B0108CF8B01088D370108B9370108D4
:10406000E5370108113801083D380108CF8B0108F8
:10407000CF8B0108CF8B0108CF8B0108CF8B0108B4
:10408000CF8B0108CF8B0108CF8B01085D4F010852
:104090007D4F0108CF8B0108CF8B010869380108DB
:1040A000CF8B0108A9850008CF8B0108CF8B0108B1
:1040B00021860008CF8B0108CF8B0108CF8B010828
:1040C000CF8B0108CF8B0108CF8B0108CF8B010864
:1040D000CF8B0108CF8B0108CF8B0108CF8B010854
:1040E000A9380108CF8B0108CF8B0108CF8B0108BD
:1040F000CF8B0108CF8B0108CF8B0108CF8B010834
:10410000CF8B0108CF8B0108CF8B0108CF8B010823
:10411000CF8B0108CF8B0108CF8B0108CF8B010813
:10412000CF8B0108CF8B0108CF8B0108CF8B010803
:10480000BBBAADDEB5700008DC8E00205170000828
:10481000355400080800002004000020000000209B
:10482000808E00207C0000207400002030B301083E
:1048300070B20108A8B10108E8B0010878AD01081C
:10484000C8AD0108757600086C8F00208C8E0020A2
:10485000E8970020E8AB0108948F002000000000DA
:104860000000000000000000000000000000000048
:104870000000000000000000000000000000000038
:104880000000000000000000000000000000000028
:104890000000000000000000000000000000000018
:1050000010B583690446581C03D09B6804F118004E
:105010009847E368591C03D09B6804F10C0098473B
:1050200023685A1C02D09B6820469847204610BD32
:1050300010B5C368591C044602D09B680C309847D1
:1050400023685A1C02D09B6820469847204610BD12
:1050500010B50C4C20460EF07BFB0028FAD0094816
:105060000EF0B6FA084A93689B07FCD5064A946886
:1050700014F08004FBD1044813F080F8034B1C703B
:1050800010BD00BF1806002000300140B806002007
:1050900010B5042012F0C0FE042012F0B5FE00206E
:1050A00012F0EAFE032012F0B7FE03201E4C12F0AD
:1050B000ABFE012012F0E0FE002012F06BFF6368EF
:1050C000E26A43F0805322F0005243F440436360AD
:1050D0000420E26212F054FF002012F047FF6368E0
:1050E00043F440036360002012F0FEFD022012F042
:1050F000CDFE012012F0D4FE002012F0DBFE0020D5
:1051000012F08AFE002012F07FFE084C022012F0FE
:10511000B3FE0749074B0848084A2360084C0C6057
:1051200060210360116010BD001002402C010020BE
:105130003001002000D8B80534010020780000209C
:10514000006CDC0210B5032012F066FE1A4C04203D
:1051500012F062FE4FF40021032012F0D1FF12F092
:1051600051FF23684FF4FA6202FB03F3072B07D9C0
:10517000DB08013B00BF00BF00BF00BF00BFF8D18C
:1051800012F096FF236844F6206202FB03F3072B1C
:10519000044607D9DB08013B00BF00BF00BF00BFCA
:1051A00000BFF8D112F084FF241AC4F313044FF4A3
:1051B000C85004FB00F010BD780000202DE9F84F26
:1051C000FFF7C0FF844B854C1860FFF761FF40F28A
:1051D000023012F0E9FE40F2033012F0E5FE4FF427
:1051E000417012F0E1FE4FF4407012F0DDFE01213B
:1051F0004FF0007012F0D0FD794BDFF8E8B17A4E35
:105200007A4DDFF8ECC17B4F0FCB84E80F007A4B6F
:105210000FCB103484E80F00784B0FCB8BE80F00D6
:1052200096E80F000BF1100A8AE80F0095E80F00CE
:105230000AF1100A8AE80F009CE80F000AF1100A30
:105240008AE80F006E4B0FCB87E80F0096E80F003F
:1052500007F1100E8EE80F0095E80F0007F120050A
:1052600085E80F00674B4FF00209C3F81098DBF890
:1052700004304FF0010808FA03F59CE80F0007F12D
:10528000300686E80F00DBF80000ABB20022414692
:1052900012F052FDDBF81430DBF8100008FA03F3CB
:1052A0009BB20022414612F047FDDBF82430DBF8C8
:1052B000200008FA03F39BB20022414612F03CFDA5
:1052C000DBF83430DBF8300008FA03F39BB24246D7
:1052D000002112F031FDDBF814204FF480339340AD
:1052E000DBF818200A2413604B46013B00BF00BFC7
:1052F00000BF00BF00BFF8D1013CF5D17B68BA68A0
:10530000012505FA03F313607B68386805FA03F397
:1053100022469BB2294612F00FFD7B69386905FAD7
:1053200003F322469BB2294612F006FD7B6A386AD7
:1053300005FA03F322469BB2294612F0FDFC7B6B73
:10534000386B05FA03F321462A469BB212F0F4FCAF
:10535000D7E905124FF480338B4013600A240222F0
:105360001346013B00BF00BF00BF00BF00BFF8D124
:10537000013CF5D1234A24484FF400468025C2F869
:1053800010684023C2F8105C0121224612F0D4FCC0
:10539000334622461D481E4E012112F0CDFC2B46FD
:1053A000224619481B4D1C4C012112F0C5FC1B491B
:1053B0001B4B1C4808601C4A2E60012114251960F3
:1053C00025601A491A4B0E2414601E20052208601D
:1053D0001A60BDE8F88F00BF28060020E005002015
:1053E0005C9A0108700600201C9A01082C9A01089A
:1053F0006C9A01082C0600204C9A01080C9A0108AE
:105400003C9A010800000140000C014000080140E6
:10541000808D5B00F8070020B406002040080020C3
:1054200004060020E093040008000020040000208F
:105430000000002040B1022903D8044B53F821009A
:10544000704700BF00BFFCE70A207047F0990108D1
:1054500030B51B4D1B481C4C83B00EF08FF828460E
:1054600008230222032112F067FC2846202302228F
:10547000032112F061FC102301220021284612F0C2
:105480005BFC4FF4437012F08FFD204612F052FE89
:105490000020012302222821CDE90000204612F03D
:1054A00099FE204612F078FE204612F07EFE20463D
:1054B00012F08BFE204603B0BDE8304012F052BE21
:1054C000000C014018060020003001400148012175
:1054D00012F070BE003001400148062112F06ABE91
:1054E00000300140024B1B780BB1FFF7B1BD704794
:1054F000B806002038B50B4B1B7804460D466BB937
:105500000948A1B212F033FE102D00D038BDC4F30B
:105510000F21054812F02BFE000238BDFFF798FD61
:10552000EEE700BFB806002000300140F0B5194F8B
:10553000194A3B7889B005460E46126807924FF02B
:10554000000213BB012415483C7012F01CFE1449E4
:1055500014480591002240F201130192ADF8103079
:1055600005AA234603A900960395ADF818400EF04E
:1055700035F80C480EF026F8074B1A68079B5A407E
:105580004FF0000304D109B0F0BDFFF761FDD9E78A
:1055900003F064FAB80600207000002000300140DB
:1055A0000C30014018060020454B4648464A474902
:1055B000F0B50024032618605E601C72DC60444B6A
:1055C000444D454F1060C1E90023444B1472C0E9BB
:1055D00000544348D4600125C3E90044C3E90244B0
:1055E000C3E90444C3E906444FF0FF3383B0C1E983
:1055F000024455603B4903603A46C360836113F03F
:105600001DFE3949394A3A4B3A48C2E90044C2E9D9
:105610000244C2E90444C2E90644C2E90844C2E9BA
:105620000A44C2E90C44C2E90E44C3E90044C3E998
:105630000244C3E90444C3E90644C3E90844C3E996
:105640000A44C3E90C44C3E90E44C1E900252A4ACF
:105650008C6013602023CB60D3604FF480730B8386
:105660001383FF230B6213620F23C1E90D64C2E9A8
:105670000154CC610C86D461148694634B621F4C38
:1056800053620623C1E90455C2E9045581F832503A
:1056900082F832508B62C56893624FF08073566314
:1056A000CB62D362009590E80E0020460DF0E0FD3D
:1056B00013493A46204603B0BDE8F04013F0BEBDA2
:1056C00018060020BC06002008060020C4060020A2
:1056D00000240140000002406C000020E005002092
:1056E000D406002001500008A40500207006002008
:1056F0002C060020FC99010868050020FC0700200A
:10570000315000082DE9F04F056C002D83B00446A0
:105710000E46174640F3C380C2680091BD42A8BF41
:105720003D46D2F8008090F83D102B4600220C3008
:10573000C047236C5B1B002B236442DC3544374499
:10574000BD423ED2DFF884914FF0000804F10C0A0C
:105750000AE084F83C6026B10D2E00F09080012311
:10576000A3630135AF422CD9A26B2E78002AF0D06A
:10577000012A72D094F83C30133B152B36D8DFE861
:1057800003F0523535353552353535353535355CDF
:10579000383838353535350B0135A7EB050B5E4507
:1057A000C4F8388040F38680E36800951D6894F85B
:1057B0003D1032465B4604F10C00A6EB0B06A847F1
:1057C000266403B0BDE8F08FA3F11001022953D87D
:1057D000616B3140266B112B314462D0122B636A0E
:1057E0001B6800D1042204F124009847C4F83880D3
:1057F000B7E794F83D30626B1340226BD65494F8AF
:105800003D3094F83E200133DBB29A4284F83D30BB
:10581000A7D1A369C4F838801B6894F83F1004F13D
:10582000180098479DE7236894F83D101B6832469E
:1058300020469847C4F8388093E7626B94F83D306F
:105840001340226BD654A369C4F838801B6894F8BF
:105850003D1004F11800984783E794F83C3084F831
:105860003D60212B84F83F6015D0222B0FD0232BD5
:10587000AAD1083684F83E600223A36371E7636A05
:1058800001221B68494604F12400984769E7043661
:1058900084F83E60F0E7023684F83E60ECE70D469F
:1058A0004DE7636A02221B6804F124009847C4F89C
:1058B000388056E70095E36894F83D10D3F800B0BF
:1058C0003246334650463544D8474BE7F89D0108E9
:1058D00038B500211E4D418304464FF4C9621C3087
:1058E00013F0E4FD2868696804F2646304F6AC42CE
:1058F0001860596008339342FAD104F59752A868AA
:10590000E96814321860596008339342FAD104F5FB
:10591000C95029686A681C3019605A600833984277
:10592000FAD14FF4C962002113F0C0FD04F5FC5018
:105930004FF4C9620021043013F0B8FD04F517508C
:105940004FF4C962BDE8384000210C3013F0AEBD01
:10595000FC9D010800000000F8B532A7D7E90067F8
:105960002B4A0260C0E9026727A7D7E9006700F564
:10597000005365228261DFF89CC027494FF0000E7A
:1059800000250122C0E904670446C3F888CCC3F8A7
:105990008C5CC3F814EC214DC3F8901CA3F8942C34
:1059A000FFF796FF04F5305C0CF1180C05F130069A
:1059B000AE46BEE80F00B6450CF1100C05F110051F
:1059C0004CF8100C4CF80C1C4CF8082C4CF8043C0F
:1059D000EED1134D04F5315C0CF1080C05F1400ECD
:1059E0002C460FCC74450CF1100C05F110054CF849
:1059F000100C4CF80C1C4CF8082C4CF8043CEFD163
:105A0000F8BD00BFAFF3008000E9A435000000003E
:105A10003B1208803333333F00040103509E0108DA
:105A2000109E010800E1F505000000002DE9F84393
:105A300003782D2B054622D02B2B4FF000071FD0CB
:105A4000284613F009FC10F075F82B78A3F130020A
:105A5000092A044605D815F8013FA3F13002092AA6
:105A6000F9D92E2B26D02B7803F0DF03452B09D054
:105A700017B104F1004004462046BDE8F883012731
:105A80000135DDE7681C13F0DFFB051E08DD1B4E4A
:105A90002046314610F08CF8013D0446F8D1E7E786
:105AA000E6D0174E2046314610F082F80135044604
:105AB000F8D1DDE76B78A3F13008B8F1090F05F1F3
:105AC0000105D1D8DFF838904FF07E564946304670
:105AD00010F06EF80646404610F016F8314610F009
:105AE00067F8014620460FF05BFF15F8013FA3F170
:105AF0003008B8F1090F0446E8D9B5E700002041A5
:105B0000CDCCCC3D2DE9F04FCB438DB001F001055C
:105B100003F0010EAA00734607929A008046039094
:105B2000AC46009500EB8E0400EB8505CDF804E053
:105B30000292002087B23946082200235B0001F060
:105B400001069BB2013A43EA06034FEA5101F5D13F
:105B50009F4211D208EBC30355F8302053F82C10A4
:105B600045F8301043F82C2054F8302053F82E100C
:105B700044F8301043F82E200130B0F5807FD9D1A1
:105B800008230A938023069301230493049B5B005C
:105B90000B931BB2099300230893089A049BD31814
:105BA0009A4205936DDA089E002558E03F4951F866
:105BB000227051F823A007F10047039B009A019837
:105BC00003EBC404394654F8229054F820B04846F8
:105BD0000FF0EEFF5146804658460FF0E9FF0146B0
:105BE00040460FF0DDFE5146804648460FF0E0FF8C
:105BF0003946034658469B460FF0DAFF039BDDF813
:105C00001CA003EBC6078146414657F80A000FF077
:105C1000C5FE009A029B44F82200F95858460FF03E
:105C2000BFFE49460FF0BAFE019A44F8220057F829
:105C30000A0041460FF0B4FE029C47F80A003959A9
:105C400048460FF0ADFE59460FF0A8FE069B3851AE
:105C50001D440136059BB6B29E42ADB211DA049BDB
:105C6000402D06EB0304A5F14002C5F18003A4B268
:105C7000C5F140019AD80D4B53F825A053F8217077
:105C80009BE7DDE9083213449BB2FF2B089384D9CC
:105C9000069B5B080693BDF82C3004930A9B013BDE
:105CA0000A937FF473AF0DB0BDE8F08F809E0108BA
:105CB0002DE9F0473F4C81460F46164612F01EF87C
:105CC000236913F080085CD109EB0601894538BFD0
:105CD0004D4615D2E368DA07FCD4236943F002038A
:105CE00023616561236943F040032361E368DB07B7
:105CF000FCD4E268202A27D105F50065A942E9D83D
:105D0000A7F1040A46B91CE0D9F800309D4209F118
:105D100004092CD1A64214D954465AF8045F4846C7
:105D2000294611F0FDFF11F095FF083420280246A6
:105D3000A4EB0704E8D0204920480DF049FE6FF09D
:105D400001084046BDE8F0871D491C480DF040FEA3
:105D50002A461C4919480DF03BFE6FF001081A490C
:105D600016484A460DF034FE4046BDE8F087174914
:105D700012482A466FF002080DF02AFE4046BDE8A0
:105D8000F08713490D480DF023FE124A12490B48C3
:105D90000DF01EFE114A124908480DF019FE6FF071
:105DA000010822690F4905480DF012FE4046BDE882
:105DB000F08700BF0020024078A0010878A60020EC
:105DC000F49F010828A0010858A00108ACA0010810
:105DD000849F010804200240B89F0108102002405F
:105DE000CC9F0108E09F01080628F8B500EBC0042D
:105DF00036D81D4E1D4A326006F50057E40204F104
:105E000008240021054604F50034C7F8981C07F65D
:105E10009C40334601E053F8042F834281EA02019B
:105E2000F9D1B4F1006FC7F8981C16D30E4942F6A9
:105E3000A0422046FFF73CFF07460D490D483B4670
:105E40002A460DF0C5FD236832680B4909480DF05C
:105E5000BFFD0A4B1D803846F8BD4FF0FF37ECE719
:105E60004FF0FF37F7E700BF480800203B120880DB
:105E7000E4A0010878A6002000A10108EA3400206F
:105E8000062838B52ED800EBC004E40204F108213E
:105E900001F500311C4B0A689A4226D11B4D1C4B60
:105EA0002544234440F628349D4288BF012401EB59
:105EB00084040B464FF0000E01E05A68634603F17C
:105EC000040CA4458EEA020EF7D17446A4B9114A17
:105ED000114B1160188042F6A042104813F0D0F91F
:105EE000204638BD4FF0FF34FAE70D490D480DF05C
:105EF0006FFD6FF00104F3E70B490A4872460DF09D
:105F000067FD6FF00204EBE73B120880040802080B
:105F1000A03402080C000020EA34002048080020C9
:105F200020A1010878A6002054A10108154B164AAB
:105F3000B3F9003003EBC303DB0203F1082000F5E3
:105F40000030016891421BD130B5104A104D1A44FF
:105F50001D4440F62834954288BF012400EB840498
:105F600003464FF0000C02E05968F44613461A1D30
:105F7000A24281EA0C0EF7D1614518BF002030BD66
:105F800000207047EA3400203B120880A034020849
:105F90000408020830B40B4D0B4A2A600024AC629E
:105FA0002B4605F1280101E053F8042F8B4284EAC7
:105FB0000204F9D1AC620349044830BC2C22FFF73B
:105FC00077BE00BF100000203B12088000000208CE
:105FD00038B5164B164C1A68A24217D1154C002042
:105FE00001E05A680B46191DA14280EA0200F8D16F
:105FF000844698B90D4D104C0FCD0FC40FCD0FC472
:1060000095E8070084E80700604638BD0B490C4856
:1060100023460DF0DDFC4FF0FF3CF5E70246094951
:1060200007480DF0D5FC4FF0FF3CEDE700000208FB
:106030003B1208802C0002081000002088A10108F3
:1060400078A60020BCA10108024A4368C1E90023E8
:10605000704700BF0CA20108704700BF024A4368A6
:10606000C1E90023704700BFF8A10108704700BFD5
:1060700030B44368029C03F59270D3F82421BFF337
:106080005B8F511CD3F8205101F01F0C65451CD0CB
:10609000BFF35B8F50E8005F954204D140E8001CDD
:1060A000BCF1000FF6D1BFF35B8FE6D102F01F0207
:1060B000A16843F8321003EBC201E0684860134462
:1060C0000122BFF35B8F83F8002130BC704700BF13
:1060D00010B41C4A1C4B4FF480744FF00071C2F88E
:1060E0001048C2F810184FF000544FF480411C6162
:1060F000196143681B68032B0AD94FF40043C2F8A7
:10610000103C104B4FF48042C3F8102C10BC704769
:10611000D9070ED44FF0004103F00203C2F8101C5F
:10612000002BEED1074B4FF08042C3F8102C10BC6F
:1061300070474FF4004103F00203C2F8101C002B1B
:10614000F0D0DEE700000140001001400000000038
:106150002DE9F04FE1B0036A09905B4800685F9059
:106160004FF00000CDE90721591C00F0F1815B6878
:10617000564A0999934201F1200040F0E7814B6AA9
:106180000D93099B524EDD6A0C966A1C00F0E68165
:106190006B68504A0999934201F12C0040F0F68156
:1061A0004D4F0B6B0F97109315AC4FF4807200217D
:1061B000204613F07BF92022002155A813F076F930
:1061C0000999149ACF620023C4F82031C4F824310D
:1061D0000B930B6B13930BAB0B634B6B14936B1CFD
:1061E00012954A6304D0AB683C4A934240F0D48194
:1061F0003B4B099D1B68AB600123CDE9023342F2A2
:1062000010732B6100220023CDE9002328462CA324
:10621000D3E900230CF04AFD2B6A6A6A14991392A1
:106220005F1CAA6A2E6212936C62A962149204D057
:106230009B682C4A934240F0A08100260B960B9B52
:10624000079A9A42C0F218814FF0000BD4F824311B
:10625000D4F8202103F01F039A421CD144E0BFF37D
:106260005B8FD4F82031234493F800311BB3D4F86A
:106270002031234483F80061D4F82031013303F046
:106280001F03C4F82031D4F82431D4F8202103F0BE
:106290001F03934228D0BFF35B8FD4F820312344EF
:1062A00093F8003103B3D4F82431D4F8202103F05B
:1062B0001F039342D3D102F0B3FB00BFAFF30080C2
:1062C00000DAF89A00000000700000204960000821
:1062D0000CA201085D600008F8A101086D600008CB
:1062E00008000020596000080325D4F82431D4F8B0
:1062F000202103F01F039342F7D0BFF35B8FD4F844
:106300002031234493F80031002BEED0D4F824310F
:10631000D4F8202103F01F039342CCD0BFF35B8F4E
:10632000D4F82031234493F80031002BC3D0D4F8A3
:1063300020312344013D83F80061D4F8203103F17A
:10634000010303F01F03C4F82031CED10B9B032BB4
:1063500014BF0A23282306935F46D4F82431D4F8C7
:10636000202103F01F039342F7D0BFF35B8FD4F8D3
:106370002031234493F80031002BEED0BFF35B8F24
:10638000D4F8203104EBC30254F833A0D2F80490BF
:106390002AF0004829F00041404604910FF0BAFD70
:1063A00008B904998846594640460FF095FD38BB18
:1063B00041464FF07E500FF0AFFC0146504605912C
:1063C0000FF0F6FB0599049048460FF0F1FB049B93
:1063D0008246194618460FF0EBFB5146814650465F
:1063E0000FF0E6FB014648460FF0DAFA10F0A6F887
:1063F00041460FF0DDFB014638460FF0D1FA074663
:10640000D4F82431D4F8202103F01F0393423FF441
:1064100052AFBFF35B8FD4F82031234493F800319F
:10642000002B3FF448AFD4F820312344013583F8E2
:106430000061D4F82031013303F01F03C4F8203188
:10644000069BAB4289D118460FF05EFB39460546E4
:106450004FF07E500FF060FC014628460FF0A8FB7D
:106460000B9F0B9B089A01330B9342F827000B9B61
:10647000079A93427FF7EAAE01230B930B9B079A8F
:106480009A420FDBDDE907640B9D216854F8250073
:106490000FF042FC0B9B44F8250001330B930B9B40
:1064A000B342F1DD089A4FF07E5313600C9B5E1CE3
:1064B0005ED05B683C4A934257D10D9B3B4A139395
:1064C00009981399036A0262426A13924162826ACE
:1064D000149912935D1C8162149203D09B68344A14
:1064E000934247D10F9B5C1C3DD05B68314A93427D
:1064F00036D1109B304A139309981399C36AC2622C
:10650000026B016314991392426B4163581C1293FE
:10651000149203D09B68294A934240D10F9B591C87
:1065200003D09B68254A93422AD10C9B5A1C03D066
:106530009B681F4A934226D1214B1A685F9B5A40A1
:106540004FF000032ED161B0BDE8F08F0CA9984741
:10655000099B164EDD6A6A1C7FF41AAE164F23E6BD
:1065600012A90FA89847129AC6E712A90CA8984733
:10657000129AA5E712A89847B4E712A898475CE6D4
:106580000FA89847D1E70CA89847D5E70FA99847D7
:10659000099B094FDD6A07E612A8984728E612A86A
:1065A0009847BBE702F05AFA496000080CA20108BC
:1065B000596000085D600008F8A101086D600008DE
:1065C0007000002010B5064C42F6F83204F11C00B1
:1065D000002112F06BFF2046BDE81040FFF7BCB968
:1065E00048080020F8B5144B144F1C6805460E46A9
:1065F000184601212368144698477A684FF480337F
:106600009340BA6829460E4D13602B6808221B6818
:10661000284698477A6801239340BA6813604EB1C0
:1066200026442B6814F8011B1B680822284698474B
:10663000B442F6D1F8BD00BF24830020146F0020BF
:106640003083002010B503685A1C044601D09B68B3
:106650009847204610BD00BF10B503685A1C044679
:1066600001D09B689847204610BD00BF10B5036855
:106670005A1C044601D09B689847204610BD00BFB5
:1066800010B503685A1C044601D09B689847204601
:1066900010BD00BF70B51B4A1B4ED2E90112012389
:1066A0008B401360336842F2107202FB03F33BB17C
:1066B000DA08013A00BF00BF00BF00BF00BFF8D139
:1066C0001248134C03681B68984741F28835002133
:1066D000012000E06178A21CFFF784FF6278336834
:1066E000023205FB03F31444DA0833B1013A00BF68
:1066F00000BF00BF00BF00BFF8D120780028E9D15B
:1067000070BD00BF146F0020780000204883002077
:1067100018A201082DE9F0412D4C84B0246803949F
:106720004FF00004441E144440EA0440BDF82850D1
:1067300003FB02F440BA4A1E1344019041EA0341AC
:1067400049BA244802910368DFF88C801B68984797
:1067500001AA04212A20FFF745FF02AA04212B20C9
:10676000FFF740FF002211462C20FFF73BFFB4F556
:10677000007F26464FF0000328BF4FF4007694B107
:10678000D8F8002022F8135001339E42F8D8134F56
:106790003B68A642354628BF25461B682946384631
:1067A0009847641BF4D10E4BD8F800209A4208BFDA
:1067B00002F52063C8F80030054B1A68039B5A4065
:1067C0004FF0000302D104B0BDE8F08102F046F9B9
:1067D0007000002048830020600000203C830020DF
:1067E000246F002030B514461D46421E1E4B85B056
:1067F000224440EA02401B6803934FF0000340BA72
:106800004B1E2B44019041EA034149BA17480291BB
:1068100003681B68984701AA04212A20FFF7E2FEBB
:1068200002AA04212B20FFF7DDFE002211462C20B6
:10683000FFF7D8FE0E48036805FB04F11B68984774
:106840000C4A0D4B1168994208BF01F52063136093
:10685000054B1A68039B5A404FF0000301D105B065
:1068600030BD02F0FBF800BF70000020488300201C
:106870003C83002060000020246F002030B5164BC0
:1068800005461A681846154B126883B01B680193B9
:106890004FF000030C469047C5B928238DF803300C
:1068A0002CB19DF8033063F07F038DF803300DF1B8
:1068B000030201213620FFF795FE084B1A68019B61
:1068C0005A404FF0000305D103B030BD68238DF866
:1068D0000330E5E702F0C2F8488300207000002092
:1068E00000B5074B83B01B8800930021F0234FF4C1
:1068F000A0720846FFF70EFF03B05DF804FB00BF6F
:10690000106F0020014B1880704700BF126F0020ED
:10691000014B1880704700BF106F00202DE9F04731
:10692000154CDDF8208024680BB302F1FF391FFA03
:1069300089F909F10109114E114F4FEA490908EB94
:10694000430A38F802CB82B104EB09051CF4004F6E
:1069500014BFB7F800E0B6F800E024F802EB4FEA05
:106960004C0CAC421FFA8CFCF0D1C245E9D1BDE819
:10697000F047FFF737BF00BF60000020106F002016
:10698000126F00202DE9F04F83B003780191002BA6
:1069900039D0204C204D064690460F460A2B35D064
:1069A0001E4AC3EBC30C1E4B12F80C901B6809F077
:1069B0000709C9F10809944403EB490E4FEA490A53
:1069C00072460CF1070B19461CF8013B18064CBF28
:1069D0002888208821F8020B5B009142DBB2F5D1B8
:1069E000DC45734601EB0A0201D0D644EBE7B8B2AE
:1069F00007234A461FFA88F1FFF7F4FE4F4416F8C2
:106A0000013F002BCAD103B0BDE8F08F019F08F110
:106A10000808F4E7106F0020126F00207C9A01082C
:106A2000600000202DE9F04F411883B088420091AA
:106A300039D29BB2DFF874801D4C1E4D019306467F
:106A4000174616F8013B1C4AC3EBC303116818F83C
:106A5000039009F00709C9F1080908EB030C01EBE1
:106A6000490E4FEA490A72460CF1070B1CF8013B2C
:106A700018064CBF2888208821F8020B5B00914241
:106A8000DBB2F5D1DC4501EB0A02714601D0D644F8
:106A9000ECE70723B8B201994A46FFF7A3FE009B33
:106AA000B3424F44CDD103B0BDE8F08F7C9A0108CA
:106AB000106F0020126F0020600000202DE9F04FC1
:106AC00087B0CDE903129946C0EBC0002C4B2D4C8A
:106AD0001F5CD4F800A0DFF8B0E02C4C07F00707EB
:106AE000C7F10807002F00EB03024FEA4906CCBFAD
:106AF0003B46012306FB03F30193D31DC9EBC97881
:106B000002930FFA89F300924FEA48080593B9F10E
:106B1000000F21D04FF0000B009B1D780AEB0601FF
:106B20004FF0000C01EB080368B20028B4BF2288C4
:106B3000BEF8002023F8022B8B42F6D10CF1010C99
:106B40006D006745EDB203EB0601EBDC019B0BF139
:106B5000010BD9459A44DFD1009B029A013393423D
:106B60000093D4D1059B19FB07F7DDE90301C3EBC3
:106B7000C3033A46FFF736FE384607B0BDE8F08F4C
:106B80007C9A010860000020106F0020126F002026
:106B90002DE9F84305460078B8B1884616461F46E9
:106BA0004FEAC3090C4605E0FFF788FF044415F8D7
:106BB000010F50B10A2821463B463246F4D115F860
:106BC000010F4E4444460028F4D1BDE8F88300BFCD
:106BD0002DE9F04F904283B0064690460D461F4681
:106BE00003DD3D4646460F468046DFF880A008F1AB
:106BF0000109C7F1010B11E00132944217DB94FB4C
:106C0000F2F40123BAF800200092294630462246C9
:106C100026441D44FFF77EFD464520DC7A1BA9EB88
:106C20000604E9D50BEB0503A34206DD013A92FB0E
:106C3000F4F3002B16DD0124E4E794FBF3F40122C6
:106C40004FF0FF33BAF8001000911D443046134650
:106C5000294622462644FFF75DFD4645DEDD03B0AA
:106C6000BDE8F08F5A420124ECE700BF126F00200C
:106C7000F0B5174B174C1B6800EB800500EB450087
:106C800004EB80040E4617461349144A03F1200012
:106C900004F12C0534F8023BA0F1200C13F4004F52
:106CA00014BFB1F800E0B2F800E02CF802EB5B0092
:106CB00084459BB2F2D1AC420CF12000EAD1B9B2CA
:106CC000B0B21623BDE8F0401022FFF78BBD00BF25
:106CD00060000020D0A50108126F0020106F002076
:106CE00038B50E480E4D0F494FF0FF342A46046068
:106CF00012F0A4FA0C480D4904602A4612F09EFADC
:106D00000B480C4904602A4612F098FA0A480B49CD
:106D100004602A46BDE8384012F090BA248300206F
:106D20006C0000204566000830830020596600088A
:106D30003C8300206D6600084883002081660008BF
:106D40002DE9F047DDE908360D46554914469942CC
:106D50004FF0000272EB060182467FDB3146184697
:106D60000EF0E8FE0EF08CFA43A3D3E90023804630
:106D700089460EF0DDFA0EF0BDFD0EF081FA40A35B
:106D8000D3E9002306460F460EF0D2FA02460B4620
:106D90003DA1D1E900010EF013F932463B460EF059
:106DA000C7FA3BA3D3E900230EF00AF932463B466B
:106DB0000EF0BEFA3B4B00220EF004F90EF09AFDE5
:106DC0004FF07E5107460EF0EBFD06463146204659
:106DD0000EF0EEFE3146044628460EF0E9FE394636
:106DE0000EF0DCFD05462CA3D3E9002340464946BE
:106DF0000EF09EFA0EF07EFD2B4906460EF0D8FEF0
:106E00002A490EF0CBFD31460EF0D2FE28490EF095
:106E1000C7FD2849074630460EF0CAFE01463846EF
:106E20000EF0C6FE0646014628460EF0C1FE21467B
:106E3000034630461E460EF0BBFE014628460EF0C5
:106E4000ADFD3146054620460EF0AAFD0446CAF8BF
:106E50000050CAF804405046BDE8F08716499942F0
:106E6000B241F4DB314618460EF064FE0EF008FA2B
:106E700080468946B7E700BF76830DF4F521A43E2E
:106E8000FA7E6ABC7493783F3F355EBA490CC23FC4
:106E9000666666666666E63F8DEDB5A0F7C6B03EEF
:106EA0003F4B4C000000F03F6F12033C8FC2F53D9A
:106EB0006666E63ECDCC4CBFDF707200024A436886
:106EC000C1E90023704700BFB0A50108704700BFAB
:106ED000014B0B60704700BF20A40108704700BF42
:106EE000014B0B60704700BF38A50108704700BF19
:106EF000014B0B60704700BF24A50108704700BF1D
:106F0000014B0B60704700BF10A50108704700BF20
:106F1000014B0B60704700BFFCA40108704700BF25
:106F2000014B0B60704700BFE8A40108704700BF29
:106F3000014B0B60704700BF60A50108704700BFA0
:106F4000014B0B60704700BF4CA50108704700BFA4
:106F5000014B0B60704700BF74A50108704700BF6C
:106F6000704700BF014B0B60704700BF9CA5010834
:106F7000704700BF014B0B60704700BF88A5010838
:106F8000704700BF014B0B60704700BF34A401087D
:106F9000704700BF024A83880A608B80704700BF39
:106FA000C4A50108704700BF014B0B60704700BFCC
:106FB000D4A40108704700BF084AD2E932034FEA5F
:106FC000E17C01FB03F30CFB0033A0FB010119443E
:106FD000D2E93032C01841EB02017047808E0020A8
:106FE000014B0B60704700BF70A40108704700BFE1
:106FF000014B0B60704700BFACA40108704700BF95
:10700000014B0B60704700BF48A40108704700BFE8
:10701000014B0B60704700BFC0A40108704700BF60
:10702000014B0B60704700BF84A40108704700BF8C
:10703000014B0B60704700BF98A40108704700BF68
:10704000014B0B60704700BF5CA40108704700BF94
:10705000F8B5164E0746306815460C460CF06CFB2A
:10706000D6E9022101EBD1714910114E4B1E0340AC
:107070003068B3FBF5F3B0FBF5FC05FB03F305FB50
:107080000CFC9C4594BFA3EB0C03A1EB0C0393FBFE
:10709000F5F303FB05F505EB0C038B4202EB4C0209
:1070A00028BF00233A6033602560F8BDC406002085
:1070B000D89700208446134602480A4661460BF0E2
:1070C000B3BE00BF808E00200148FEF71BBB00BF8F
:1070D00094970020014807F0D7BC00BFD88D00204E
:1070E000FEF700BA08461146FEF704BA0379407964
:1070F00043EA00200BF096B838B500231A460D4637
:107100001946044611F07EF8144B196820460139DF
:1071100011F095F80021204611F093F8204611F067
:107120007FF8691E204611F08EF8204611F073F8A2
:10713000204611F07FF8204611F087F82046012103
:1071400011F05CF8012320466361002111F082F800
:107150002046BDE8384011F068B800BF7800002034
:10716000F0B5244AD2E90401012871F1000385B089
:1071700026DBB2F91860002ED2E9024537DD731E16
:10718000001B1AB261EB050143F3C0330EF0FCFEA5
:107190008DE843002B46184D1848194E2246012110
:1071A000002403912C7001613168816080F8904067
:1071B0000BF07CFD2C7005B0BDE8F04004F0F4BF8E
:1071C000CB0FD2E90267181841F10001400840EAEC
:1071D000C170841947EB61054B10404263EB4301DA
:1071E0008019B2F9186047EB0101002EC7DC0020BE
:1071F0000146CDE748080020E8340020808E0020BA
:107200000400002010B40849084A094B0C681168B2
:1072100099601C61074A4068518B012383400B43EE
:10722000538310BC0AF03EB9000000200800002083
:10723000808E00204808002010B50C46FEF752F959
:107240000C4B4CB1D3F80828120409D5094B4FF464
:107250000002C3F8102C10BD8022C3F8102C10BD02
:107260004FF40042C3F81028024B4FF40002C3F859
:10727000102CF0E700000140044A1378002BFCD1E9
:10728000034B49001868FEF751B900BFD0830020B6
:107290006000002010B50C46FEF724F90B4A137865
:1072A000002BFCD10A4B64B1D3F8082C12065CBF4A
:1072B0008022C3F8102C064B4FF00042C3F8102870
:1072C00010BD4FF40042C3F8102810BDD083002039
:1072D0000000014010B44D4B4D4CD3E90003002297
:1072E000844272EB03042ADB4A4C844272EB0303B0
:1072F0002FDA494B4FF40042C3F8102C464B4FF0A5
:107300008042C3F8102C454B00221A70052914D86E
:10731000DFE801F035475E0372253F4A404B4FF4EA
:1073200080744FF00070C2F810484FF40051C2F85A
:1073300010084FF0804219611A6110BC7047364B3B
:107340004FF000404FF48042C3F8100CC3F8102CEB
:10735000D9E7314B4FF00042C3F8102CCEE7304A4A
:107360002D494FF400544FF08040146110614FF0EC
:1073700000700122C1F810081A7010BC7047264A2C
:10738000274B4FF480744FF00070C2F810484FF054
:107390000051C2F810084FF4804219611A6110BC04
:1073A0007047204B93F89030012B08D11A4B4FF4C3
:1073B00080714FF00072C3F81018C3F81028184BF2
:1073C0004FF000514FF0804219611A6110BC7047B4
:1073D0001349114A4FF000544FF080400C6108618E
:1073E0004FF080744FF400700121C2F81048C2F8C9
:1073F0001008197010BC7047094B4FF400514FF43E
:10740000804219611A6110BC704700BF5883002088
:1074100000F90295003B580800000140D08300208D
:1074200000100140808E0020F0B52B4BADF2144DC2
:10743000012202A901A81B68CDF80C344FF000030B
:10744000FFF706FE029D002D1EDD019A03A902EB47
:10745000450032F8023BC3F30B13803B824201F834
:10746000013BF6D103AB1D4F2C465E19202C224662
:10747000A6EB0401A8BF20223868203C0DF04AFD8D
:107480002B1B9D42F2DC029D154816490268164BE3
:107490002A4402604FF080424FF0005008614FF4E0
:1074A00000740A614FF080704FF00041C3F810483B
:1074B000C3F81008C3F8101CC3F8102C064B1A6848
:1074C000DDF80C345A404FF0000302D10DF2144D98
:1074D000F0BD01F0C3FA00BF70000020848F0020CF
:1074E000808F00200010014000000140134B032951
:1074F0001960134B09D94FF40042C3F8102C104BFC
:107500004FF48042C3F8102C7047CA070DD44FF0D7
:10751000004201F00201C3F8102C0029EFD1084B02
:107520004FF08042C3F8102C70474FF4004201F036
:107530000201C3F8102C0029F1D0E0E78898002060
:107540000000014010B583685A1C044602D09B68B5
:1075500008309847204610BD10B543685A1C0446B1
:1075600005D09B68044A934200F1040001D12046F3
:1075700010BD9847204610BDDD6E000838B50546A1
:1075800050B100F1600454F80C3D5A1C204601D063
:107590009B689847A542F6D1284638BD10B5436A86
:1075A0005A1C044602D09B6824309847A369581C93
:1075B00003D09B6804F118009847E368591C05D074
:1075C0009B680A4A934204F10C0008D123685A1CB4
:1075D00003D09B68064A934203D1204610BD9847CA
:1075E000F4E720469847204610BD00BF716F0008A1
:1075F000816F000810B5036D591C044602D09B68CA
:1076000050309847636C5A1C05D09B68154A9342CA
:1076100004F144001CD1A36B581C05D09B68124A8E
:10762000934204F1380015D1E36A591C05D09B68D8
:107630000E4A934204F12C000ED1236A5A1C05D045
:107640009B680B4A934204F1200007D1204610BDED
:107650009847E0E79847E7E79847EEE798472046DE
:1076600010BD00BFED6E0008FD6E00082D6F000814
:107670000D6F000800B5144B144A1B7885B01268D2
:1076800003924FF000029BB9012202A901A8FFF763
:10769000DFFCDDE901120E480BF09AFD012202A980
:1076A00001A8FFF7D5FCDDE9011209480BF090FDB8
:1076B000064B1A68039B5A404FF0000302D105B0F5
:1076C0005DF804FB01F0CAF96C8F00207000002007
:1076D000808E00201E4ADFF87CC01F49F0B5402490
:1076E000DFF878E0C2F810484FF480050027C2F8B0
:1076F0001048DCF8003001FB03F3072B07D9DB0847
:10770000013B00BF00BF00BF00BF00BFF8D1C2F8FF
:107710001058DCF8003001FB03F6072E07D9F608F5
:10772000013E00BF00BF00BF00BF00BFF8D101375E
:10773000B842DCD10EFB03F3072BD7D9DB08013BA2
:1077400000BF00BF00BF00BF00BFF8D10027CEE7D9
:107750000000014078000020400D030040420F006F
:107760002DE9F04F91B0DDE91A041F46AB4B0794A9
:1077700004911B680F934FF00003A94BD0F804B09D
:107780001B7FD0F800A0C5688468D0F81490164616
:107790000269002B00F03B82A24B4021C3F8101875
:1077A000A14BDFF888C21B68A149029251F823005F
:1077B000B4454FF0000373EB070CC0F2EA81DFF829
:1077C00074C2664577F10003ACBF4FF0010C4FF077
:1077D000000C51F82C100EF09FFA029A11468046C8
:1077E0000EF0E6F949460246404691460EF0E0F9B1
:1077F000914A0023B242BB418046C0F2D9814FF08A
:107800007C534946184602930EF0D2F9029B024679
:107810004146184606920EF0CBF9294608902846B4
:107820000EF0C6F92146804620460EF0C1F9014609
:1078300040460EF0B5F801464FF07E500EF06CFA5F
:107840002946804658460EF0B3F9514681462046F7
:107850000EF0AEF9014648460EF0A2F841460EF091
:10786000A7F95946814620460EF0A2F929468346DB
:1078700050460EF09DF9014658460EF08FF84146ED
:107880000EF096F94946024600960AA80197FFF7BE
:1078900057FADDF828B0DDF82CA0594620460EF046
:1078A00087F92946814650460EF082F9014648463E
:1078B0000EF074F829460346584602930EF078F904
:1078C0005146814620460EF073F9014648460EF0B7
:1078D00067F85A4B05901A68002A40F09E81079B72
:1078E000002B00F0AA81414620460EF061F9414686
:1078F000814628460EF05CF9079A1368526809938E
:1079000000F1004A4946184607920EF051F9079ACD
:107910008346514610460EF04BF9014658460EF08C
:107920003DF8099B844651461846E2460EF040F960
:10793000079A4946834610460EF03AF901465846E2
:107940000EF02EF8CDE9006703463D4E51461A462B
:107950000AA8FFF7F5F93368DDF828A0DDF82C90C8
:10796000002BC0F2C881049A364F07EBC20347F8D8
:1079700032A04FEAC20BC3F804903368002BC0F268
:107980009980029920460EF013F929468146059800
:107990000EF00EF9014648460EF002F841460EF090
:1079A00007F9DDF810A057F83A100DF0F7FF059928
:1079B000079020460EF0FCF82946814602980EF00A
:1079C000F7F85F44014648460DF0E8FF41460EF0E7
:1079D000EFF87968DFF870B00DF0E0FF33680699D2
:1079E000C92202FB03A303330BEBC303079A98607E
:1079F0005A60074620460EF0DBF8DDF820A08146ED
:107A0000294650460EF0D4F8014648460DF0C8FF0E
:107A100041460EF0CDF85146814617E07000002037
:107A2000808E0020000001408898002000F9029517
:107A30008C980020013B580800B33F71688F0020EC
:107A400064000020804100204808002020460EF0FD
:107A5000AFF82946824606980EF0AAF8014650462D
:107A60000DF09CFF41460EF0A3F83368012B00F0A7
:107A70009F813368022B00F0E3803368032B0FD122
:107A8000049A079902F2B9430BEBC30359609F6054
:107A900002F25E230BEBC30BCBF80490CBF808008B
:107AA000AF4A1368002B40F0D580AE4B04991960A3
:107AB00001231360AC4BDFF8B4921B68D9F8006067
:107AC000BFF35B8F771C07F07F07BB4256D0A84BF4
:107AD000029906EB860603EB860A049BCAF810306F
:107AE00020460EF065F82946834605980EF060F8AA
:107AF000014658460DF054FF41460EF059F8B600C5
:107B00009B4B0599985120460EF052F8294606469F
:107B100002980EF04DF8014630460DF03FFF414609
:107B20000EF046F80699CAF8040020460EF040F818
:107B3000DDF820B00646294658460EF039F80146D1
:107B400030460DF02DFF41460EF032F85946CAF886
:107B5000080020460EF02CF82946044606980EF040
:107B600027F8014620460DF019FF41460EF020F897
:107B7000CAF80C00BFF35B8FC9F800707D4B1A6820
:107B80000F9B5A404FF0000340F05D8111B0BDE8FB
:107B9000F08F89680EF0C0F8029A114680460EF008
:107BA00007F841460346484699460EF001F88046DC
:107BB0007148301867F100010DF0BCFF6F490DF0FE
:107BC000F7FF4FF0804102900DF0E8FE0DF058FBFA
:107BD000029B0A4601461846CDE902120DF050FB01
:107BE0005DA3D3E900230DF0A3FB02460B46DDE9BC
:107BF00002010DF09DFB624B00220DF0E3F9614B99
:107C000000220DF095FB0DF075FE0346F9E55E4B85
:107C10004FF48001C3F81018C2E5511EBFF35B8F0B
:107C200053E8000F904203D143E80016002EF7D12D
:107C3000BFF35B8F554B1B683CE7544B1B6839E720
:107C4000049B03F57C730BEBC30BCBF80490CBF8D0
:107C5000080025E7012B00F0B580022B7FF42AAF46
:107C6000404B04991B6899427FF424AF0023484F8E
:107C700013604FF0FF33336007F16C02FE6EBFF309
:107C80005B8FB86E731C03F0070188423FF412AF9C
:107C9000BFF35B8F52E8001FB14203D142E80030CE
:107CA0000028F7D1BFF35B8FE8D13A4803685A1C2C
:107CB00002D05B680CA9984706F0070606EB46035E
:107CC00098000C9A39583A5007EB83030D9A58687C
:107CD0005A600E9A0D9098689A604B1C0C910E9009
:107CE00002D08B680CA89847BFF35B8F3E440123FA
:107CF00086F86030DEE6284B284F1A78022A74D0C6
:107D0000049907EBC10247F831A04FEAC10BC2F852
:107D100004901A783AB9224A0499D2F8D020013A4C
:107D2000914200F08D801A78012A7FF426AE1D481A
:107D3000DFF86CC090F8950C1B498CF8900002207D
:107D400018701A4A0B68CCF810301368CCF8083059
:107D500013E600BFAFF300809A9999999999E93F8A
:107D60007C8F002068000020748E0020788E002018
:107D7000D483002070000020004DC08EFFE6DB2F72
:107D80000000F03F0000E03F0000014064000020E0
:107D900060830020708F0020E834002080410020A4
:107DA000808E0020482800200000002008000020CD
:107DB000049B03F227330BEBC30BCBF80490CBF8F7
:107DC00008006DE6214B0498196888427FF472AE72
:107DD00002201F491060049A096902448A421A600D
:107DE000FFF668AE521A1A6064E6049B194907EB65
:107DF000C302099250684FEAC30B0DF0D9FE164931
:107E0000079048460DF0D4FE014607980DF0C8FDD6
:107E1000049B1049079057F833000DF0C9FE0E4936
:107E2000814650460DF0C4FE014648460DF0B8FDAF
:107E3000049B099A47F83300079B5360074B68E798
:107E400001221A7099E500F009FE00BF68000020C9
:107E500068980020CDCC4C3FCDCC4C3EE83400207F
:107E600030B58BB0C1F30723324A8DF81130324C54
:107E7000324B0392ADF804108DF8101004F16C022F
:107E80001B6809934FF00003E56EBFF35B8F6B1C1B
:107E9000A06E03F00701884235D0BFF35B8F52E834
:107EA000001FA94203D142E800300028F7D1BFF3F8
:107EB0005B8FE9D1039B581C37D05B68204A934203
:107EC00030D1BDF810301B48ADF81C3005F0070567
:107ED00005EB4503990004EB830362586050596831
:107EE000079807919968586008980891511C069264
:107EF000986002D0936806A89847BFF35B8F2C4424
:107F0000012384F86030039B5A1C02D09B6803A8AD
:107F100098470A4B1A68099B5A404FF0000306D154
:107F20000BB030BD06A903A898470698CEE700F02D
:107F300095FD00BFC4A501086083002070000020EB
:107F4000956F00082DE9F843104FDFF844900E4676
:107F5000154640F2DC544FF47A7838682A463146A8
:107F60000CF0F2FF78B9D9F8003008FB03F3072BC7
:107F700007D9DB08013B00BF00BF00BF00BF00BF47
:107F8000F8D1013CE9D1BDE8F88300BF848F00201F
:107F9000780000202DE9F04F7C4B8FB030291B6812
:107FA0000D934FF00003019240F0DB80784B1A787C
:107FB0000AB901221A70019B002B40F3D280DFF82E
:107FC000D4A1754E4FF09D49002703E0019BBB42B1
:107FD00040F3C780714BDAF800401B68BFF35B8F3A
:107FE0009C42F3D06E4A04EB840102EB810BDBF878
:107FF0001050B5F5806FE9D8DFF8A88152F821005C
:1080000058F835100BF1080303930DF0C7FC4946EF
:108010000DF0CEFD0DF092FF08EBC501029049680E
:10802000DBF804000DF0BAFC49460DF0C1FD0DF07F
:1080300085FF49468046DBF808000DF0B9FD0DF0DC
:108040007DFF039B01468B46586849460DF0B0FD05
:108050000DF074FF029A8DF81C2040218DF8171046
:1080600011128DF81D10111412168DF81F204FEAF1
:1080700028224FF0000C4FEA28638DF821204FEAA8
:1080800028428DF820808DF81E108DF814C08DF8D0
:1080900015C08DF816C08DF818C08DF819C08DF870
:1080A0001AC08DF81BC08DF822208DF823304FEABE
:1080B0002B238DF825304FEA2B438DF82630031201
:1080C0008DF824B08DF828004FEA25284FEA2B6B55
:1080D0008DF829304622031400168DF82A308DF8C9
:1080E0002B008DF82C508DF82D808DF82EC08DF83A
:1080F0002FC08DF830C08DF831C08DF832C08DF8AA
:1081000033C08DF827B005A90DF13200134601E008
:1081100011F801CF5A0042F0010283EA0C035A40E1
:108120008142D3B2F4D1DFF880808DF8333040F251
:10813000DC554FF47A7BD8F80000202205A90CF01A
:1081400003FFC0B933680BFB03F3072B07D9DB0828
:10815000013B00BF00BF00BF00BF00BFF8D1013D21
:10816000E9D10A4B1A680D9B5A404FF000030BD11E
:108170000FB0BDE8F08F013404F07F04BFF35B8FD4
:108180000137CAF8004021E700F068FC70000020C9
:10819000D48D0020748E002078000020788E00207E
:1081A000D483002080410020848F0020074B1B686F
:1081B00003FB00F0072807D9C008013800BF00BF43
:1081C00000BF00BF00BFF8D1704700BF780000209B
:1081D00070B51B4BD3F8085828042DD5194D1446FB
:1081E0004FF40042C3F810280E46FDF775F92B68CE
:1081F00003EB83035B00072B07D9DB08013B00BFC0
:1082000000BF00BF00BF00BFF8D121463046FDF7D8
:1082100071F92B6803EB83035B00072B044607D936
:10822000DB08013B00BF00BF00BF00BF00BFF8D1AB
:10823000FDF74CF9204670BD0320FFF74BFA00BF55
:108240000000014078000020F0B54FF0020E0268F7
:108250007346013B00BF00BF00BF00BF00BFF8D1A5
:10826000D2E901324FF4803505FA03F31360734607
:10827000013B00BF00BF00BF00BF00BFF8D1734685
:10828000013B00BF00BF00BF00BF00BFF8D10368C3
:108290004FF0200C0124D3E90926002904FA02F743
:1082A000AABF05FA02F2376032605A699E6905FA80
:1082B00002F2326049007246013A00BF00BF00BFBF
:1082C00000BF00BFF8D15A699E6904FA02F2326019
:1082D0007246013A00BF00BF00BF00BF00BFF8D127
:1082E000BCF1010CD7D102687346013B00BF00BF4F
:1082F00000BF00BF00BFF8D17346013B00BF00BF05
:1083000000BF00BF00BFF8D1D2E905138D401D604A
:10831000D2E901138C401C60F0BD00BFF8B5069A8D
:108320009048079B0021904271EB03030ADB8E48C3
:10833000037E002B00F01C818C48037E002B00F094
:10834000FD80F8BD884E337E002B7CD1874D2B7E7F
:10835000002BF6D0D5E90D206B6A69695B0243EA10
:10836000427242EA006242EA813200234FF0020C7C
:1083700042F080622B7642F0420229686346013B5C
:1083800000BF00BF00BF00BF00BFF8D1D1E901317D
:108390004FF4803404FA03F30B606346013B00BFE3
:1083A00000BF00BF00BF00BFF8D16346013B00BF64
:1083B00000BF00BF00BF00BFF8D12B6820204FF0E6
:1083C000010ED3E90916002A0EFA01F7AABF04FA32
:1083D00001F13760316059699E6904FA01F1316039
:1083E00052006146013900BF00BF00BF00BF00BF9F
:1083F000F8D159699E690EFA01F13160614601397F
:1084000000BF00BF00BF00BF00BFF8D10138D8D106
:108410002A686346013B00BF00BF00BF00BF00BF2A
:10842000F8D16346013B00BF00BF00BF00BF00BFE3
:10843000F8D1D2E905138C401C60D2E901320EFA62
:1084400003F31360F8BDD6E90D40736A31765A0222
:1084500042EA44727369316842EA006242EA833256
:10846000022442F0806242F042022346013B00BFF8
:1084700000BF00BF00BF00BFF8D1D1E901314FF408
:10848000803C0CFA03F30B602346013B00BF00BFA6
:1084900000BF00BF00BFF8D12346013B00BF00BFB3
:1084A00000BF00BF00BFF8D1336820200125D3E909
:1084B0000917002A05FA01FEAABF0CFA01F1C7F854
:1084C00000E0396059699F690CFA01F13960520086
:1084D0002146013900BF00BF00BF00BF00BFF8D177
:1084E00059699F6905FA01F139602146013900BFD8
:1084F00000BF00BF00BF00BFF8D10138D7D132683C
:108500002346013B00BF00BF00BF00BF00BFF8D142
:10851000013C00BF00BF00BF00BF00BFF8D1D2E9DF
:1085200005310CFA03F30B60D2E901138D401D6095
:108530000E4D2B7E002B3FF404AF0BE7D0E90D541A
:10854000436A4269590241EA457141EA046141EADC
:10855000823141F08061012341F062010376FFF72F
:1085600073FEF8BD003B5808A405002068050020F4
:10857000D0E90D54436A4269590241EA457141EA22
:10858000046141EA823141F08061012341F06201DE
:108590000376FFF759FE0348037E002B7FF4D1AE2C
:1085A000CCE700BF6805002000B51849184B194AF0
:1085B00085B0096803914FF000010020C3F8100C4A
:1085C0001549136809781933136099B9012202A972
:1085D00001A8FEF73DFDDDE9011210480AF0F8FDA3
:1085E000012202A901A8FEF733FDDDE901120B48C3
:1085F0000AF0EEFD054B1A68039B5A404FF000034A
:1086000002D105B05DF804FB00F028FA70000020EC
:10861000002001409C9800206C8F0020808E00205C
:108620004FF0804300221A610AF0BEB92DE9F04FE5
:108630008FB0FDF77BFC002800F0BC80D0E904235C
:10864000012A73F10001824680F2B780D0E9025618
:10865000D80F811843F10007490841EAC77464192B
:10866000019446EB67040294BAF91840002C40F3D9
:10867000AD8041EAC77252424FEA670363EB43039E
:10868000521946EB03030199501A029A63EB020157
:10869000631E1AB243F3C0330DF076FC8046BF4828
:1086A000D0E90423012A894673F1000180F2998000
:1086B000DFF8E8E2D80F8118DEE9025743F1000C39
:1086C000490841EACC7676190696BEF918600396F9
:1086D00047EB6C0B002E40F38E80634641EACC7270
:1086E00052424FEA630363EB4303521947EB030320
:1086F0000699501A63EB0B01039B013B1AB243F33B
:10870000C0330DF041FCCDE90401039B002B42DD99
:10871000069A019902988A427BEB000580F26181FA
:108720000498059CCDF800A0861844EB0B070AF1CD
:108730001C01CDF824B0DDE901AB994ACDF81C80CD
:10874000CDF820904FF0000C40F6FE259846864666
:10875000A146002351F8230042F8230001EB8300D7
:10876000446802EB830003F5C973AB424460F1D166
:108770000CF1010CC4450CD016EB0E0047EB0903BD
:10878000564577EB0B0402F1080238DA06461F461D
:10879000DFE7DDF800A0BAF81A3082497F4C0A887A
:1087A000608B43F4007323F48073034342F00402AC
:1087B00063830A800FB0BDE8F08FB0F9184081687C
:1087C0000191002CC16802913FF75DAF7348D0E979
:1087D0000423012A4FF0000873F10001C146FFF69F
:1087E00067AFB0F918108568D0F80CB00391002974
:1087F00006953FF77DAF0023CDE9043385E7DDF82B
:1088000000A0DDF824B0BAF91840CDF800C0DDE9C9
:108810000789494640460DF08DF901464FF07E50DC
:108820000DF07AFA22460D90059C0098049DC11720
:1088300000FB04F305FB01330AF52F5138310C918D
:10884000A0FB05510B440699CDF818A06D184FF008
:10885000000443EB0B0BA24220DD04FB09F3E117FC
:1088600008FB0131A4FB0830014401981B18029851
:1088700041EB00019D427BEB010007DB18EB030697
:1088800041EB0900B5427BEB000018DB18EB03035A
:1088900004F1010441EB0901A242EBD1531EA342B2
:1088A0006AD0049B05995D19009B4BEB010B039962
:1088B00001338B420093CEDBDDF818A06BE758EA5A
:1088C000090200F08880E81A6BEB01010DF032F923
:1088D0000D990DF06DF9014607904FF07E500DF0A7
:1088E0005DF806990894E30003F1080201EB020A1F
:1088F0000C9ACDF824B0D31801EBC406274A00998E
:10890000079C0795CDE90A8902EBC10705469B46FE
:10891000316A28460DF04CF9DAF8201080462046DE
:108920000DF046F9014640460DF03AF8DAF81C1011
:10893000804620460DF03CF9F169814628460DF04D
:1089400037F9014648460DF02BF806F5C966B345E0
:10895000F861C7F820800AF5C96A07F5C967D7D159
:10896000069BDDF82C90B3F91820DDE90754531E5F
:10897000A342DDE909B894D1039B0099DDF818A062
:108980008B427FF708AF0548C92400EBC30600EB14
:10899000C10513462946002208E000BF4808002010
:1089A00064080020E8980020BAF9183004FB02336C
:1089B00002330AEBC30301325868C8619B680B623B
:1089C000072A01F5C961EFD10835AE423FF4E3AEA5
:1089D000BAF91830DEE74FF07E53184600230793AC
:1089E0007FE70023009314E74FF0E022D2F8883DA0
:1089F00003F47003B3F5700F0FD0D2F8883D43F441
:108A00007003C2F8883DD2F8880D00F47000A0F51C
:108A10007000B0FA80F0400970470120704700BF35
:108A200008B50B4C0B49402503220846C4F81058E2
:108A3000FFF7BCFB4FF48003C4F810380846FFF77B
:108A4000B5FB013AF1D10448FFF7B0FBECE700BFFA
:108A500000000140A086010040420F0008B505203B
:108A6000FEF738FE08B50620FEF734FE70B51B4E43
:108A70001B4B728B1B4D0121814084B022EA010205
:108A800072831968184A0091126803924FF000022D
:108A90005A6801929A685860044602980292134AF2
:108AA00098601A60002385F890304B1C02D08B68C8
:108AB00068469847BFF35B8F0D4B0E491B68AB6050
:108AC0000122094B0C602A611A68039B5A404FF03F
:108AD000000301D104B070BDFFF7C0FF48080020BB
:108AE000708F0020808E002070000020B0A501084B
:108AF0000400002064000020064B07495A8B03F550
:108B0000005042F4807290F8950C5A8381F89000DE
:108B1000704700BF48080020808E00200148FCF705
:108B2000D7BE00BF4808002008B50548FCF714FF71
:108B3000FEF716FB034B1B78BDE8084004F08CB829
:108B400048080020D48D00202DE9F047042800F2C9
:108B50006781DFE810F026005B007E00E70005007B
:108B6000B0480121904271EB0304BCBF0B460246A2
:108B700042F210718A4273F10004AB48BCBF0A464E
:108B800000230024A9490025C0E90223C0E90445C7
:108B9000012481F8954CFEF7E3FABDE8F047FFF7B2
:108BA00045BDA0480121904271EB0304BCBF0246C1
:108BB0000B4642F210718A4273F100009A48B8BF26
:108BC0000A46D0E90451B8BF0023012D71F1000419
:108BD00014DA4FEAD17C1CEB050541F100016D0868
:108BE000846845EAC1756D424FEA610161EB41015C
:108BF0002D19C468056141EB040141619542994119
:108C0000C0E90223C7DAC0E90423C4E7854801218B
:108C1000904271EB0304BCBF02460B4642F2107156
:108C20008A4273F100008048D0E90454BCBF0A4670
:108C30000023012D74F10001C0F2E380D0E9021499
:108C40008A4273EB0401C0E90423A4DAC0E90223D9
:108C5000A1E774480121904271EB0304B8BF0246BA
:108C6000144642F21072B8BF0B466F48944273F13B
:108C70000001B8BF1446D0E90421B8BF0023012A7F
:108C800071F1000506DB8568AA1AC568026165EB0B
:108C900001014161524261EB410E4FEADE7111EB7D
:108CA000020C4EF100054FEA5C0C4CEAC57CDCF18D
:108CB000000C4FEA650565EB450542F210761CEBAA
:108CC000040C43EB0505B44575F10005C0E902430A
:108CD0000DDA574AA21863F1000E92184EEB0E0EF1
:108CE000514201616EEB4E0141614FEADE7189181C
:108CF0004EF1000E490841EACE714A4A091943EB88
:108D00006E0E01258A4275EB0E01BFF644AF141BAF
:108D100065EB030324195B41644263EB4303C0E941
:108D2000044338E74048D0E90441012C71F10005C3
:108D300064DB85686419C56841EB0501CE0F341901
:108D400041F100014FEA540C4CEAC1764C10C0E9E5
:108D50000264384F002B9446B8BF4FF0000C1D46FC
:108D60004FF00101B8BF6546674571EB050EBCBF0A
:108D7000BC460D46DCF1000101614FEAD57165EB9F
:108D8000450711EB0C0145F1000E490841EACE718F
:108D900049424FEA6E0E6EEB4E0E42F2107A11EB24
:108DA000060944EB0E08D14547614FEA5C0C78F1A7
:108DB00000074CEAC57C11DA1CEB0A074FEA65058F
:108DC00045F100058760C560012A73F10003BFF615
:108DD000E2AE164B012283F8952CDCE61CEB060C68
:108DE00044EB65040F4D0126654576EB0404EBDA90
:108DF00049194EEB0604C0E90214E5E7D0E9026424
:108E0000A7E7E10F491944F100048568490841EAE0
:108E1000C4714919C568816045EB6404C4600FE7FB
:108E2000BDE8F08700AC4206480800204828002032
:108E3000F0D8FFFFF084420608B5C928A8BFC920B2
:108E4000054B0228B8BF02201883FEF789F9BDE858
:108E50000840FFF7EBBB00BF48080020024B83F837
:108E6000950CFEF77DB900BF4828002010B42F4AAA
:108E7000D2E90431012B71F100040BDB042852D834
:108E8000DFE800F0030518281800D2E9023118467F
:108E900010BC7047042846D801A454F820F000BF45
:108EA000E18E0008038F00088B8E0008FB8E0008FF
:108EB0008B8E0008D2E902021B1841EB0201CA0F97
:108EC000D31841F100015B0843EAC1731846491009
:108ED00010BC7047D2E902021B1A61EB0201D6E70F
:108EE000C80FC01841F100019368D268400840EAF9
:108EF000C170C31842EB6101C9E75B4261EB4101FC
:108F0000C5E7C80FC01841F1000140089368D26856
:108F100040EAC17040424FEA610161EB4101C31870
:108F200041EB0201B3E700231946B0E748080020EF
:108F3000084AD2E932134FEAE07C00FB03F30CFB52
:108F40000133A1FB00011944D2E93032C01841EBD2
:108F500002017047808E0020024A137883F00103DB
:108F6000137070473C000020F8B5374C00EB40030D
:108F700004EB830542F61B42CE1E012E15F802E0DB
:108F80008CBF4FF0000C4FF0010CB1F10C0718BF73
:108F90000127E6454FEA40033CD005F802C042F6FF
:108FA0001842AA5CBA421DD0184404EB800442F671
:108FB000184242F61943A754E25C91420BD0234A6F
:108FC000E15401EB410002EB800242F6204590881B
:108FD0000CF096FD60511E4803F0FCFFBDE8F84020
:108FE00003F03ABE42F61943EA5C9142F3D0174AC5
:108FF000E95401EB410002EB800242F620449088E4
:109000000CF07EFD2851124803F0E4FFBDE8F84063
:1090100003F022BE42F61842AA5CBA42C4D142F61C
:109020001943EA5C91420DD0084AE95401EB410131
:1090300002EB810142F6204488880CF061FD012E8C
:109040002851C8D9F8BD00BF4808002078A30108FE
:10905000F0340020064B00EB400003EB800042F6AA
:109060001A43C25C8A4200D17047C15403F0F4BD78
:109070004808002070B50F4C0F4A00EB400004EB8D
:10908000800442F619430846E35C03EB430302EB1A
:10909000830342F61C4699680CF03EFE05462946BD
:1090A000A0590CF019FF00B170BDA551BDE870408A
:1090B00003F0D2BD4808002078A3010870B5094C20
:1090C00000EB400004EB800442F620460D46A05918
:1090D0000CF002FF00B170BDA551BDE8704003F077
:1090E000BBBD00BF4808002038B5074D04462146E7
:1090F000D5F8140C0CF0F0FE00B138BDC5F8144CD6
:10910000BDE8384003F0A8BD48280020014BD3F843
:10911000140C704748280020FF28A8BFFF20044AED
:10912000044B12780128B8BF012083F8920C7047D5
:10913000D48D002048280020024B80F3020083F8E1
:10914000930C70474828002010B5044C044B236052
:10915000FCF74AFE1423236010BD00BF688F002077
:1091600040420F0010B5FCF78BFE044608B12046C4
:1091700010BDFDF7F5FF034B1B7803F06DFD204696
:1091800010BD00BFD48D002010B5044C044B2360EB
:10919000FCF700FF1423236010BD00BF688F002080
:1091A00040420F0010B50F4B0F4C84B00B22CDE99D
:1091B000022304AB13E90600204600230AF0BEFB9D
:1091C0000A4A0B49B2F91A00B2F91830CDE9003059
:1091D0002046B2F91630B2F914200AF0F9FB04B0B7
:1091E00010BD00BF8CA2010878A60020100000204E
:1091F00098A2010808B5FCF775F905490548064A23
:10920000C1F8FC0F4FF0E023C3F80C2DFEE700BFC0
:1092100000B00020BEBAADDE0400FA05014B00220A
:109220001A707047D48D002030B52D4B2D4C85B071
:109230001B6803934FF00003E36EA26E03F0070375
:1092400093423FD00025BFF35B8FA36E234493F876
:109250006030002B36D0BFF35B8FA36E03EB43036C
:1092600004EB830054F823305A1C02D05B68694633
:109270009847E36EA26E03F0070393422DD0BFF32D
:109280005B8FA36E234493F8603033B3A36E009AD0
:109290002344511C83F86050A36E03F1010303F0D3
:1092A0000703A36619D0136868469847009B5A1CA9
:1092B00002D09B6868469847E36EA26E03F00703EE
:1092C0009342C0D1064B1A68039B5A404FF00003EB
:1092D00001D105B030BDFFF7C1FBFFF7A1FB00BF17
:1092E0007000002060830020FFF79EBF10B5294B5F
:1092F000294C84B01B6803934FF00003E36EA26E09
:1093000003F00703934237D0BFF35B8FA36E234470
:1093100093F86030002B2FD0BFF35B8FA06E00EB73
:109320004000800023585A1C03D05B6869462044E3
:109330009847E36EA26E03F00703934227D0BFF372
:109340005B8FA36E234493F8603003B3A36E009A3F
:109350002344002183F86010A36E013303F0070358
:10936000511CA36613D0136868469847009B5A1C8B
:1093700002D09B6868469847064B1A68039B5A4080
:109380004FF0000301D104B010BDFFF767FBFFF7FA
:1093900047FB00BF700000206083002010B5036809
:1093A0005A1C044601D09B689847204610BD00BF58
:1093B00010B503685A1C044601D09B6898472046A4
:1093C00010BD00BF03692DE9F04F202B4FF00006C0
:1093D000067600F36982012B24DD023B1E2B20D888
:1093E000DFE813F074021F0071021F001F001F004E
:1093F0006B021F001F001F001F001F001F001F0027
:109400006E021F001F001F001F001F001F001F0013
:109410001F001F001F001F001F001F001F001F0054
:109420006802002690F8319090F82F7090F8308004
:109430000268022189F001090B46013B00BF00BF11
:1094400000BF00BF00BFF8D1D2E901324FF4803530
:1094500005FA03F313600B46013B00BF00BF00BFDA
:1094600000BF00BFF8D10B46013B00BF00BF00BFEB
:1094700000BF00BFF8D1794C03684FF0200C4FF0CB
:10948000010ED3E9092A002C0EFA02FBAABF05FA45
:1094900002F2CAF800B0CAF800205A69D3F818A03E
:1094A00005FA02F2CAF8002064000A46013A00BF39
:1094B00000BF00BF00BF00BFF8D15A69D3F818A0A1
:1094C0000EFA02F2CAF800200A46013A00BF00BFB5
:1094D00000BF00BF00BFF8D1BCF1010CD1D10468BE
:1094E0000B46013B00BF00BF00BF00BF00BFF8D16B
:1094F0000B46013B00BF00BF00BF00BF00BFF8D15B
:109500006369A26905FA03F313606368A2680EFA3F
:1095100003F31360C369026A9B0143EA02331E43EB
:1095200046EA082848EA471790F81980036847EA8E
:10953000C80747EAC95949F004090A46013A00BF79
:1095400000BF00BF00BF00BFF8D15A689B689540BC
:109550001D600B46013B00BF00BF00BF00BF00BF46
:10956000F8D1013900BF00BF00BF00BF00BFF8D174
:10957000036820214FF4803601270224D3E909250E
:10958000B9F1000F07FA02FCAABF06FA02F2C5F809
:1095900000C02A60D3E9052506FA02F22A604FEAE4
:1095A00049092246013A00BF00BF00BF00BF00BF0B
:1095B000F8D1D3E9052507FA02F22A602246013ADA
:1095C00000BF00BF00BF00BF00BFF8D10139D5D137
:1095D00003682246013A00BF00BF00BF00BF00BFC2
:1095E000F8D12246013A00BF00BF00BF00BF00BF54
:1095F000F8D15A69996906FA02F20A605A689B68BA
:1096000097401F60836A90F82C20D90041EAC2314C
:1096100041F0030103682246013A00BF00BF00BFCA
:1096200000BF00BFF8D15A689B6896401E60234671
:10963000013B00BF00BF00BF00BF00BFF8D1013C2D
:1096400000BF00BF00BF00BF00BFF8D103682024E7
:109650004FF480374FF0010C022501E00500400077
:10966000D3E9092600290CFA02FEAABF07FA02F282
:10967000C6F800E03260D3E9052607FA02F232604C
:1096800049002A46013A00BF00BF00BF00BF00BF2B
:10969000F8D1D3E905260CFA02F232602A46013AE3
:1096A00000BF00BF00BF00BF00BFF8D1013CD7D151
:1096B00002682B46013B00BF00BF00BF00BF00BFD8
:1096C000F8D12B46013B00BF00BF00BF00BF00BF69
:1096D000F8D15369916907FA03F30B6053689268F4
:1096E0000CFA03F31360D0E90D131A06037E42EA65
:1096F000417242EA4312436942EA8332436A42EAD0
:10970000432242F0806242F0420203682946013956
:1097100000BF00BF00BF00BF00BFF8D159689B6801
:109720008F401F602B46013B00BF00BF00BF00BF42
:1097300000BFF8D1013D00BF00BF00BF00BF00BFA8
:10974000F8D1036820244FF480374FF0010C022534
:10975000D3E90916002A0CFA01FEAABF07FA01F1A3
:10976000C6F800E03160D3E9051607FA01F131606F
:1097700052002946013900BF00BF00BF00BF00BF33
:10978000F8D1D3E905160CFA01F131602946013907
:1097900000BF00BF00BF00BF00BFF8D1013CD7D160
:1097A00002682B46013B00BF00BF00BF00BF00BFE7
:1097B000F8D12B46013B00BF00BF00BF00BF00BF78
:1097C000F8D15369916907FA03F30B605368926803
:1097D00040490CFA03F31360C3682A4641EAC30107
:1097E0000368013A00BF00BF00BF00BF00BFF8D14F
:1097F0005A689B6897401F602B46013B00BF00BF23
:1098000000BF00BF00BFF8D1013D00BF00BF00BFD7
:1098100000BF00BFF8D1036820244FF4803C01272B
:109820000225D3E90926002907FA02FEAABF0CFA8D
:1098300002F2C6F800E03260D3E905260CFA02F223
:10984000326049002A46013A00BF00BF00BF00BF96
:1098500000BFF8D1D3E9052607FA02F232602A46A2
:10986000013A00BF00BF00BF00BF00BFF8D1013CFC
:10987000D7D102682B46013B00BF00BF00BF00BF2D
:1098800000BFF8D1013D00BF00BF00BF00BF00BF57
:10989000F8D1D2E905310CFA03F30B60D2E90113D8
:1098A0008F401F60BDE8F08F402B14BF00264FF49F
:1098B000C006B7E54FF4A006B4E54FF44016B1E595
:1098C0004FF48006AEE54FF40016ABE54FF480167A
:1098D000A8E500BF010000082DE9F041654EDDF864
:1098E0001880194696424FF00003144673EB0102AC
:1098F000054609DB604AA24273EB010280F28980CF
:1099000024194941022600E0012642462046002350
:109910000CF03AFB01242E6100236C61574FB7FB1A
:10992000F8F73A4606460CF07FFB07FB1066C5E9E0
:109930000106EF602846FFF745FDD5E901134FF01A
:10994000020CDB0043EAC1312A686346013B00BFD9
:1099500000BF00BF00BF00BFF8D1D2E901324FF411
:10996000803E0EFA03F313606346013B00BF00BF65
:1099700000BF00BF00BFF8D16346013B00BF00BF7E
:1099800000BF00BF00BFF8D12B682020D3E9092613
:10999000002904FA02F7AABF0EFA02F23760326019
:1099A0005A699E690EFA02F2326049006246013A33
:1099B00000BF00BF00BF00BF00BFF8D15A699E6959
:1099C00004FA02F232606246013A00BF00BF00BFF3
:1099D00000BF00BFF8D10138D8D12A686346013BE7
:1099E00000BF00BF00BF00BF00BFF8D16346013B0E
:1099F00000BF00BF00BF00BF00BFF8D1D2E90531F2
:109A00000EFA03F30B60D2E901138C401C60BDE831
:109A1000F0811B4AA24273EB01020ADB194AA242FF
:109A200073EB01020BDAC90041EA54710826E40025
:109A30006BE7890041EA94710426A40065E7124AA5
:109A4000A24273EB010209DB104AA2428B410BDBFD
:109A5000890141EA94614026A40156E7090141EADF
:109A600014711026240150E7490141EAD4612026EF
:109A700064014AE70056218300AB904140787D01A4
:109A80008055C820C02A641060153208B00A190435
:109A90002DE9F047724EDFF8CCA1734BB3619AF811
:109AA000923CF360714B724FDFF8C8814FF00009B0
:109AB000834279EB010382B004460D4680F2A88010
:109AC00042F6E0636C493B6032223046C8F8003011
:109AD00009F0E6F8694BA34279EB05034DDB684BCF
:109AE000A34279EB050380F2B480664B4FF4004249
:109AF000C3F8102C634A644B4FF08041C2F8101C2D
:109B0000D3E90012AA4208BFA1427ED05C4AC3E951
:109B10000045A2424FF00003AB4140DB5B4B9C424F
:109B200040F286805A4D3868A5FB043564216D09E2
:109B300001FB05F52844DFF85C81294605F0AEF805
:109B4000D8F800309C4281467DD34E4BC8F8004087
:109B50004FF40011B9F1030F4FF48062C3F81018ED
:109B60004FF0010034BF49460221C3F81028FBF72B
:109B700061FC706002B0BDE8F087424A424B4FF092
:109B80000041C2F8101C4FF48041C2F8101CD3E908
:109B90000012954208BF8C4237D0C3E900459AF8BD
:109BA000933CD8F800A0DFF8F09029464FEAEA7518
:109BB0005246204689F819302B460CF0E5F9044648
:109BC00000FB05F50AFB0155CDF800A0A4FB0A4AED
:109BD0005544484622462B46FFF77EFE3B68D8F8A0
:109BE00000102E4800911A1945EBE373FFF774FE3D
:109BF000244B002120204FF08062C3F81008C3F8E6
:109C000010280846FBF716FC706002B0BDE8F0872C
:109C100041F27073322222493B603046C8F800306E
:109C200009F03EF8174B4FF00042C3F8102C61E7E3
:109C30001C4B3868A3FB0423DB0803EB83035D00A4
:109C400000EB430077E738682946284405F026F8FA
:109C50007BE70C4B4FF00042C3F8102C4AE700BFE3
:109C6000808E00204828002000A60E009F8601005C
:109C70007C00002074000020A8B1010800F90295C2
:109C8000003B58080000014058830020809698004F
:109C90001F85EB51DC970020A405002068050020FB
:109CA00030B30108CDCCCCCC10B5114C1148238C6D
:109CB000628C2168C0F8D420B3F5806FA8BF4FF440
:109CC00080636268C0F8C0102169C0F8D030636951
:109CD000C0F8CC30C0E9312108F0FEFF064B1B78FC
:109CE00003B910BD20686168BDE81040FFF7D0BE21
:109CF000106E0020808E00206C8F002010B51D4B50
:109D00001A780C460AB901221A7034F010020ED0EB
:109D100024F00202202A1DD0262C1DD1164A92F8CA
:109D20002620F2B1012A1CD0022A1DD010BDFFF757
:109D3000BBFF8CB91149124A124B002008701268FF
:109D40009A6001211961302CF0D10F4A0F4B126833
:109D50001A6010BDFFF7A8FF102CEBD0202CE9D023
:109D6000F1E70B4B1A7010BD094900220A701A70F6
:109D700010BD00BFD48D0020106E0020E8340020FC
:109D800004000020808E0020788E0020748E002039
:109D90006C8F002010461946FFF77ABED0E90113F8
:109DA000F0B5DB004FF0020E43EAC13102687346A2
:109DB000013B00BF00BF00BF00BF00BFF8D1D2E928
:109DC00001324FF4803505FA03F313607346013B0B
:109DD00000BF00BF00BF00BF00BFF8D17346013B0A
:109DE00000BF00BF00BF00BF00BFF8D103684FF045
:109DF000200C0124D3E90926002904FA02F7AABF9E
:109E000005FA02F2376032605A699E6905FA02F279
:109E1000326049007246013A00BF00BF00BF00BF78
:109E200000BFF8D15A699E6904FA02F232607246A4
:109E3000013A00BF00BF00BF00BF00BFF8D1BCF1B6
:109E4000010CD7D102687346013B00BF00BF00BFC1
:109E500000BF00BFF8D17346013B00BF00BF00BF89
:109E600000BF00BFF8D1D2E905138D401D60D2E9D3
:109E700001138C401C60F0BD2DE9F041052405461E
:109E80002346013B00BF00BF00BF00BF00BFF8D1A9
:109E90002346013B00BF00BF00BF00BF00BFF8D199
:109EA0002346013B00BF00BF00BF00BF00BFF8D189
:109EB000D0E905214FF4803303FA02F20A6022460A
:109EC000013A00BF00BF00BF00BF00BFF8D122466B
:109ED000013A00BF00BF00BF00BF00BFF8D122465B
:109EE000013A00BF00BF00BF00BF00BFF8D1D0E9FA
:109EF00001128B4013602346013B00BF00BF00BF2F
:109F000000BF00BFF8D12346013B00BF00BF00BF28
:109F100000BF00BFF8D12346013B00BF00BF00BF18
:109F200000BF00BFF8D14768D0F80080012606FACC
:109F300007F7BFB2394640460DF038FF3B46404672
:109F4000022200210DF0F8FE2346013B00BF00BFB6
:109F500000BF00BF00BFF8D12346013B00BF00BFD8
:109F600000BF00BF00BFF8D12346013B00BF00BFC8
:109F700000BF00BF00BFF8D1D5E904539E40B6B280
:109F8000314628460DF012FF3346022200212846B2
:109F90000DF0D2FE2346013B00BF00BF00BF00BF53
:109FA00000BFF8D12346013B00BF00BF00BF00BF88
:109FB00000BFF8D1013C00BF00BF00BF00BF00BF21
:109FC000F8D1BDE8F08100BF2DE9F04FB44BB54D9D
:109FD000B54EB7B01B6835934FF00003FBF7EEF8B2
:109FE000B24B03F5FD610EC9022085F8F00085F83B
:109FF000F20085F8F400080A85F8D01085F8D10041
:10A00000080C090E85F8D310110A85F8D42085F8BC
:10A01000D510110C120E012485F8D83085F8D61011
:10A0200085F8D720190A1A0C1B0E85F8F14085F81F
:10A03000F34085F8D20085F8D9104FF4407085F8C8
:10A04000DA2085F8DB300EF015FE214698484023D3
:10A0500000220DF071FE21469548802300220DF06C
:10A060006BFE214630464FF4005300220DF064FE93
:10A07000214630464FF4804300220DF05DFE21461C
:10A080008C484FF4004300220DF056FE21468948CB
:10A090004FF4804300220DF04FFE214684482023D8
:10A0A00000220DF049FE214681484FF480630022D2
:10A0B0000DF042FE21467E484FF4807300220DF0E1
:10A0C0003BFE21467A484FF4007300220DF034FE27
:10A0D00021467748784C4FF4805300220DF02CFE37
:10A0E000764B77484FF08051C3F810184021C3F8E1
:10A0F00010184FF00041C3F8101C4FF080424FF48D
:10A100008061C3F8102CC3F810184FF40011C3F885
:10A1100010184FF48071C3F810184FF00071C3F895
:10A1200010184FF0005333613261FEF73FF8D4E965
:10A1300001302168339A6260CDE932131A46349BAC
:10A14000A360349003464E1C5E48206004D08968AA
:10A150005D48814241F0F28232A927912169339111
:10A1600022610A466169349163610B46E168574890
:10A17000E060481C329104D089685548814241F022
:10A18000F882A169279E3291E169E261226A236225
:10A19000504BA361304633913492FFF7FFF84E4A9B
:10A1A000636A6262A26A3293339B3392349AA362E7
:10A1B0003046E36AE2623493FFF7FAF8474B484AC5
:10A1C0001A60FF21C4E90C51D3E902213398454CB0
:10A1D000339134999C60D8608024329230461A6959
:10A1E00019615C603492FFF7E3F83F4B33981A68CB
:10A1F00059683E4C586034981C6033919968986057
:10A20000531C2F943292349104D09368384A93426D
:10A2100041F070822F9B5F1C05D05B68354A9342EA
:10A2200041F094823294344C329AD4E90131626024
:10A23000339AA2603391E268349932935E1CE160F4
:10A24000349204D09B682A4A934241F084822F9B27
:10A250005D1C04D09B68264A934241F08082002016
:10A260000AF018FE4FF480530122206000211048AC
:10A270000DF062FDF02113200EF014FDFBF7E8F85D
:10A280000E4A0B4880244FF40043C2F810380121D5
:10A29000C2F8104C00220DF04FFD23462EE000BF07
:10A2A00070000020106E00200010014000F0FF1F21
:10A2B00000080140000C014094970020000001407C
:10A2C00020A1070088A50108816F00089CA501084E
:10A2D000716F000874A501084CA50108D88D0020F5
:10A2E000F48D002060A5010888AA002020A40108A0
:10A2F000DD6E0008D16E0008848F00208748884CEE
:10A30000002201210DF018FD864B0FCB84E80F00D1
:10A31000854B279C19688548339A18603291586894
:10A3200034995A6033909A68996020463492FCF7C9
:10A3300089F97F4B7F481968339A186032915868C1
:10A3400034995A6033909A68996020463492FCF7A9
:10A3500083F97949339A0868D1E901344A60CDE933
:10A3600032031A46349B8B6034942346734C0C6042
:10A37000441C04D081687248814241F0F4817149E3
:10A38000279E0868704C8D68329048683390C1E908
:10A3900001236E4B0B6030463495FCF771F9D4E91C
:10A3A000003233996A483392349A20606160329364
:10A3B0003046A368A2603493FCF744F9D4E9033231
:10A3C000339964483392349AE06021613293304685
:10A3D000636962613493FCF73FF942F21070F02236
:10A3E0004FF4A071FDF7E2FE204608F0F1FFFCF704
:10A3F00051F9FBF76BF8FCF773FA5749339A086881
:10A40000D1E901344A60CDE932031A46349B8B60AE
:10A4100034942346514C0C60411C04D08168504850
:10A42000814241F081814F4908688C6832904868C8
:10A430003390C1E901234C4B0B6027983494FCF70F
:10A440001FF904F0E1FA494A138843F0FF0313802F
:10A4500006F070FC464B47481A68186058683399F4
:10A4600033903498596099689860531C32923491B3
:10A4700004D09368404A934241F05C814CF25030E2
:10A4800008F01EFA4FF460700DF08EFD4FF400706E
:10A490000DF098FD80211C200EF004FC1C200EF015
:10A4A000F3FB4FF080404CF25031FCF725FE334A6D
:10A4B0004CF25030FDF77AFED36E926E03F0070334
:10A4C0009A425DD0002216E0BFF35B8F836E034497
:10A4D00093F86030FBB129498B6E0B4483F8602000
:10A4E0008B6E013303F007038B66CB6E896E03F02E
:10A4F00007038B4244D0BFF35B8F20498B6E0B4424
:10A5000093F86030002B3BD0CB6E0846896E03F089
:10A5100007038B42D8D1FEF783FA00BF000C01403D
:10A52000146F002008A40108248300205CA4010803
:10A530003083002098A401083C83002084A40108F3
:10A540002D70000848830020FC070020C0A40108EB
:10A5500048A40108ACA40108CC98002070A401080C
:10A56000ED6F0008DC980020D4A40108E8980020D2
:10A57000A8A5002034A40108916F00086083002082
:10A58000A848FBF7A5F9FBF723FDA648FBF7A0F9C0
:10A590000020FBF775FCA44B93F82430DF0701F192
:10A5A000A380A249A248D1F8EC37D1F8E827D1F826
:10A5B000F01700919F4909F00BFA002319229E49D8
:10A5C0009B4809F005FAFEF7EDFD9C48FFF754FCA7
:10A5D00004F0C6FA002105469948FFF759FA994850
:10A5E000994B8361994B9A4993F8923C994AC3607D
:10A5F00042F6E06304460B6013609749322208F08C
:10A600004FFBD4E90C31339A226333931A46349BBF
:10A61000636334910B46E16A904832914E1CE062CC
:10A6200004D089688E48814241F06880854C279823
:10A63000216D3291616D6265A26DA365894B2365C1
:10A6400033913492FEF7AAFED4E90931339A62625B
:10A6500033931A46349BA36234910B46216A824895
:10A6600020624C1C329104D089688048814241F0BC
:10A670004B80744C7E48E16B3391E2630A46216C57
:10A68000349123640B46A16BA063481C329104D023
:10A6900089687848814241F03D806A4C616CA06CC9
:10A6A000A2644F1CE26CE364734B3291339034929A
:10A6B000636404D08B68714A934241F03180704BDF
:10A6C000604A1B6893604FF440736E4C938210464F
:10A6D00008F0DEFA6C4BA360012220464FF40063C1
:10A6E0006A49E36008F0CCFE694B60681978694EEE
:10A6F0000DF0D0F9204608F025FF40F20B300DF0A8
:10A7000053FC40F28B100DF05DFC002119200EF07F
:10A71000C9FA1920604C0EF0B7FA19215F48FCF70E
:10A72000EBFC06237827736263623046002373765E
:10A730007760FEF747FE3046FFF730FB03232046E5
:10A7400067606376FEF73EFE2046FFF727FB002D8D
:10A7500000F0AB8752493B48DFF84481514F524EDD
:10A76000334D0322FBF7F4FC002458F8040B0BF0E4
:10A77000B5FE39460BF01CFA0AF082FD2246CDE9FF
:10A78000000101343146284609F022F9042CECD1AD
:10A79000464B474A1B681360FCF7E2FC454B1B78AD
:10A7A00004F026F9444B5B002B9300234FF07E57B7
:10A7B0002493424804F08EF93E4B1B78002B40F066
:10A7C000B385249B002B40F0D3853A4B1A781B7835
:10A7D000D2B2249203F0FF022692002B40F00A87A7
:10A7E000374B1B7803F0FF022992002B00F05085B5
:10A7F0002F4B2E4A1B681268049322929342BFF398
:10A800005B8F00F045850F4D104ED5F8D030D6F84F
:10A81000140C013B1893A6F500535C8B0AF030FD35
:10A8200050E000BF480800201000002000F0FF1F8B
:10A8300078A60020B0A20108C4A20108E00500200B
:10A84000007E5603808E002000A60E0048280020BF
:10A850007C00002074000020A8B10108E8A40108D1
:10A860002D6F0008FCA4010810A501080D6F000859
:10A8700024A50108FD6E000838A50108ED6E00084A
:10A8800008000020C4060020948F0020E0970020DC
:10A890000406002068050020A4050020002C0140CB
:10A8A0008C9800200000A04118A30108788E002099
:10A8B000748E0020D48D0020246F0020D88D0020BD
:10A8C0003C00002096F8903CD5F8C0201C92D5F8AA
:10A8D000C4202A931D9203F00103D5F8C8201E92CC
:10A8E0001493D5F8CC201F9204F0080304F480726E
:10A8F000259304F480631992289305A3D3E90023D8
:10A900000AF016FDCDE91A018DE000BFAFF300801B
